{
  "_format": "hh-sol-artifact-1",
  "contractName": "PostContract",
  "sourceName": "contracts/PostContract.sol",
  "abi": [
    {
      "inputs": [],
      "stateMutability": "nonpayable",
      "type": "constructor"
    },
    {
      "anonymous": false,
      "inputs": [
        {
          "indexed": true,
          "internalType": "uint256",
          "name": "postId",
          "type": "uint256"
        },
        {
          "indexed": true,
          "internalType": "address",
          "name": "author",
          "type": "address"
        },
        {
          "indexed": false,
          "internalType": "string",
          "name": "ipfsHash",
          "type": "string"
        },
        {
          "indexed": false,
          "internalType": "uint256",
          "name": "timestamp",
          "type": "uint256"
        }
      ],
      "name": "PostCreated",
      "type": "event"
    },
    {
      "anonymous": false,
      "inputs": [
        {
          "indexed": true,
          "internalType": "uint256",
          "name": "postId",
          "type": "uint256"
        },
        {
          "indexed": true,
          "internalType": "address",
          "name": "author",
          "type": "address"
        },
        {
          "indexed": false,
          "internalType": "string",
          "name": "reason",
          "type": "string"
        }
      ],
      "name": "PostRemoved",
      "type": "event"
    },
    {
      "anonymous": false,
      "inputs": [
        {
          "indexed": true,
          "internalType": "uint256",
          "name": "postId",
          "type": "uint256"
        },
        {
          "indexed": true,
          "internalType": "address",
          "name": "reporter",
          "type": "address"
        },
        {
          "indexed": false,
          "internalType": "uint8",
          "name": "reportType",
          "type": "uint8"
        },
        {
          "indexed": false,
          "internalType": "string",
          "name": "reason",
          "type": "string"
        }
      ],
      "name": "PostReported",
      "type": "event"
    },
    {
      "inputs": [
        {
          "internalType": "string",
          "name": "_ipfsHash",
          "type": "string"
        }
      ],
      "name": "createPost",
      "outputs": [],
      "stateMutability": "nonpayable",
      "type": "function"
    },
    {
      "inputs": [],
      "name": "getAllPosts",
      "outputs": [
        {
          "components": [
            {
              "internalType": "address",
              "name": "author",
              "type": "address"
            },
            {
              "internalType": "string",
              "name": "ipfsHash",
              "type": "string"
            },
            {
              "internalType": "uint256",
              "name": "timestamp",
              "type": "uint256"
            },
            {
              "internalType": "uint256",
              "name": "id",
              "type": "uint256"
            },
            {
              "internalType": "bool",
              "name": "isRemoved",
              "type": "bool"
            },
            {
              "internalType": "string",
              "name": "removalReason",
              "type": "string"
            }
          ],
          "internalType": "struct PostContract.Post[]",
          "name": "",
          "type": "tuple[]"
        }
      ],
      "stateMutability": "view",
      "type": "function"
    },
    {
      "inputs": [
        {
          "internalType": "uint256",
          "name": "_postId",
          "type": "uint256"
        }
      ],
      "name": "getPost",
      "outputs": [
        {
          "components": [
            {
              "internalType": "address",
              "name": "author",
              "type": "address"
            },
            {
              "internalType": "string",
              "name": "ipfsHash",
              "type": "string"
            },
            {
              "internalType": "uint256",
              "name": "timestamp",
              "type": "uint256"
            },
            {
              "internalType": "uint256",
              "name": "id",
              "type": "uint256"
            },
            {
              "internalType": "bool",
              "name": "isRemoved",
              "type": "bool"
            },
            {
              "internalType": "string",
              "name": "removalReason",
              "type": "string"
            }
          ],
          "internalType": "struct PostContract.Post",
          "name": "",
          "type": "tuple"
        }
      ],
      "stateMutability": "view",
      "type": "function"
    },
    {
      "inputs": [
        {
          "internalType": "uint256",
          "name": "_postId",
          "type": "uint256"
        }
      ],
      "name": "getPostReports",
      "outputs": [
        {
          "components": [
            {
              "internalType": "address",
              "name": "reporter",
              "type": "address"
            },
            {
              "internalType": "uint8",
              "name": "reportType",
              "type": "uint8"
            },
            {
              "internalType": "string",
              "name": "reason",
              "type": "string"
            },
            {
              "internalType": "uint256",
              "name": "timestamp",
              "type": "uint256"
            }
          ],
          "internalType": "struct PostContract.Report[]",
          "name": "",
          "type": "tuple[]"
        }
      ],
      "stateMutability": "view",
      "type": "function"
    },
    {
      "inputs": [
        {
          "internalType": "address",
          "name": "_author",
          "type": "address"
        }
      ],
      "name": "getPostsByAuthor",
      "outputs": [
        {
          "components": [
            {
              "internalType": "address",
              "name": "author",
              "type": "address"
            },
            {
              "internalType": "string",
              "name": "ipfsHash",
              "type": "string"
            },
            {
              "internalType": "uint256",
              "name": "timestamp",
              "type": "uint256"
            },
            {
              "internalType": "uint256",
              "name": "id",
              "type": "uint256"
            },
            {
              "internalType": "bool",
              "name": "isRemoved",
              "type": "bool"
            },
            {
              "internalType": "string",
              "name": "removalReason",
              "type": "string"
            }
          ],
          "internalType": "struct PostContract.Post[]",
          "name": "",
          "type": "tuple[]"
        }
      ],
      "stateMutability": "view",
      "type": "function"
    },
    {
      "inputs": [],
      "name": "getRemovedPosts",
      "outputs": [
        {
          "components": [
            {
              "internalType": "address",
              "name": "author",
              "type": "address"
            },
            {
              "internalType": "string",
              "name": "ipfsHash",
              "type": "string"
            },
            {
              "internalType": "uint256",
              "name": "timestamp",
              "type": "uint256"
            },
            {
              "internalType": "uint256",
              "name": "id",
              "type": "uint256"
            },
            {
              "internalType": "bool",
              "name": "isRemoved",
              "type": "bool"
            },
            {
              "internalType": "string",
              "name": "removalReason",
              "type": "string"
            }
          ],
          "internalType": "struct PostContract.Post[]",
          "name": "",
          "type": "tuple[]"
        }
      ],
      "stateMutability": "view",
      "type": "function"
    },
    {
      "inputs": [
        {
          "internalType": "uint256",
          "name": "_postId",
          "type": "uint256"
        }
      ],
      "name": "getReportCount",
      "outputs": [
        {
          "internalType": "uint256",
          "name": "",
          "type": "uint256"
        }
      ],
      "stateMutability": "view",
      "type": "function"
    },
    {
      "inputs": [
        {
          "internalType": "uint256",
          "name": "",
          "type": "uint256"
        },
        {
          "internalType": "address",
          "name": "",
          "type": "address"
        }
      ],
      "name": "hasReported",
      "outputs": [
        {
          "internalType": "bool",
          "name": "",
          "type": "bool"
        }
      ],
      "stateMutability": "view",
      "type": "function"
    },
    {
      "inputs": [
        {
          "internalType": "uint256",
          "name": "_postId",
          "type": "uint256"
        },
        {
          "internalType": "string",
          "name": "_reason",
          "type": "string"
        }
      ],
      "name": "manuallyRemovePost",
      "outputs": [],
      "stateMutability": "nonpayable",
      "type": "function"
    },
    {
      "inputs": [],
      "name": "owner",
      "outputs": [
        {
          "internalType": "address",
          "name": "",
          "type": "address"
        }
      ],
      "stateMutability": "view",
      "type": "function"
    },
    {
      "inputs": [],
      "name": "postCount",
      "outputs": [
        {
          "internalType": "uint256",
          "name": "",
          "type": "uint256"
        }
      ],
      "stateMutability": "view",
      "type": "function"
    },
    {
      "inputs": [
        {
          "internalType": "uint256",
          "name": "",
          "type": "uint256"
        },
        {
          "internalType": "uint256",
          "name": "",
          "type": "uint256"
        }
      ],
      "name": "postReports",
      "outputs": [
        {
          "internalType": "address",
          "name": "reporter",
          "type": "address"
        },
        {
          "internalType": "uint8",
          "name": "reportType",
          "type": "uint8"
        },
        {
          "internalType": "string",
          "name": "reason",
          "type": "string"
        },
        {
          "internalType": "uint256",
          "name": "timestamp",
          "type": "uint256"
        }
      ],
      "stateMutability": "view",
      "type": "function"
    },
    {
      "inputs": [
        {
          "internalType": "uint256",
          "name": "",
          "type": "uint256"
        }
      ],
      "name": "posts",
      "outputs": [
        {
          "internalType": "address",
          "name": "author",
          "type": "address"
        },
        {
          "internalType": "string",
          "name": "ipfsHash",
          "type": "string"
        },
        {
          "internalType": "uint256",
          "name": "timestamp",
          "type": "uint256"
        },
        {
          "internalType": "uint256",
          "name": "id",
          "type": "uint256"
        },
        {
          "internalType": "bool",
          "name": "isRemoved",
          "type": "bool"
        },
        {
          "internalType": "string",
          "name": "removalReason",
          "type": "string"
        }
      ],
      "stateMutability": "view",
      "type": "function"
    },
    {
      "inputs": [
        {
          "internalType": "uint256",
          "name": "",
          "type": "uint256"
        }
      ],
      "name": "reportCounts",
      "outputs": [
        {
          "internalType": "uint256",
          "name": "",
          "type": "uint256"
        }
      ],
      "stateMutability": "view",
      "type": "function"
    },
    {
      "inputs": [
        {
          "internalType": "uint256",
          "name": "_postId",
          "type": "uint256"
        },
        {
          "internalType": "uint8",
          "name": "_reportType",
          "type": "uint8"
        },
        {
          "internalType": "string",
          "name": "_reason",
          "type": "string"
        }
      ],
      "name": "reportPost",
      "outputs": [],
      "stateMutability": "nonpayable",
      "type": "function"
    },
    {
      "inputs": [],
      "name": "reportThreshold",
      "outputs": [
        {
          "internalType": "uint256",
          "name": "",
          "type": "uint256"
        }
      ],
      "stateMutability": "view",
      "type": "function"
    },
    {
      "inputs": [],
      "name": "reportToLikeRatio",
      "outputs": [
        {
          "internalType": "uint256",
          "name": "",
          "type": "uint256"
        }
      ],
      "stateMutability": "view",
      "type": "function"
    },
    {
      "inputs": [
        {
          "internalType": "uint256",
          "name": "_threshold",
          "type": "uint256"
        }
      ],
      "name": "setReportThreshold",
      "outputs": [],
      "stateMutability": "nonpayable",
      "type": "function"
    },
    {
      "inputs": [
        {
          "internalType": "uint256",
          "name": "_ratio",
          "type": "uint256"
        }
      ],
      "name": "setReportToLikeRatio",
      "outputs": [],
      "stateMutability": "nonpayable",
      "type": "function"
    }
  ],
  "bytecode": "0x6080604052600580556002600655348015601857600080fd5b50600780546001600160a01b03191633179055611e398061003a6000396000f3fe608060405234801561001057600080fd5b50600436106101215760003560e01c806339013426116100ad5780638da5cb5b116100715780638da5cb5b14610299578063c7303c61146102c4578063ef366f81146102d7578063f0aee897146102fa578063f4ab24991461030357600080fd5b806339013426146102355780633ca62de11461024857806340731c241461025157806365f3a0081461027157806382a910c91461027957600080fd5b806317906c2e116100f457806317906c2e146101dc5780631b4e8157146101e55780631e848855146101fa578063305611001461020d57806333d8eec01461022257600080fd5b806305666d7b146101265780630b1e7f83146101595780630f0c3fc41461017e578063128b69d9146101bc575b600080fd5b6101466101343660046116d6565b60009081526003602052604090205490565b6040519081526020015b60405180910390f35b61016c6101673660046116d6565b610316565b60405161015096959493929190611735565b6101ac61018c3660046117a8565b600260209081526000928352604080842090915290825290205460ff1681565b6040519015158152602001610150565b6101cf6101ca3660046116d6565b61046e565b60405161015091906117d4565b61014660045481565b6101f86101f3366004611915565b6105a2565b005b6101f8610208366004611974565b610895565b610215610957565b6040516101509190611a24565b6101f86102303660046116d6565b610bdb565b6101f86102433660046116d6565b610c0a565b61014660055481565b61026461025f3660046116d6565b610c39565b6040516101509190611a7d565b610215610deb565b6101466102873660046116d6565b60036020526000908152604090205481565b6007546102ac906001600160a01b031681565b6040516001600160a01b039091168152602001610150565b6101f86102d2366004611a97565b611093565b6102ea6102e5366004611ad4565b6111f5565b6040516101509493929190611af6565b61014660065481565b610215610311366004611b34565b6112d5565b600060208190529081526040902080546001820180546001600160a01b03909216929161034290611b4f565b80601f016020809104026020016040519081016040528092919081815260200182805461036e90611b4f565b80156103bb5780601f10610390576101008083540402835291602001916103bb565b820191906000526020600020905b81548152906001019060200180831161039e57829003601f168201915b5050506002840154600385015460048601546005870180549697939692955060ff9091169350906103eb90611b4f565b80601f016020809104026020016040519081016040528092919081815260200182805461041790611b4f565b80156104645780601f1061043957610100808354040283529160200191610464565b820191906000526020600020905b81548152906001019060200180831161044757829003601f168201915b5050505050905086565b606060016000838152602001908152602001600020805480602002602001604051908101604052809291908181526020016000905b82821015610597576000848152602090819020604080516080810182526003860290920180546001600160a01b0381168452600160a01b900460ff1693830193909352600183018054929392918401916104fc90611b4f565b80601f016020809104026020016040519081016040528092919081815260200182805461052890611b4f565b80156105755780601f1061054a57610100808354040283529160200191610575565b820191906000526020600020905b81548152906001019060200180831161055857829003601f168201915b50505050508152602001600282015481525050815260200190600101906104a3565b505050509050919050565b6000831180156105b457506004548311155b6105d95760405162461bcd60e51b81526004016105d090611b89565b60405180910390fd5b60008381526020819052604090206004015460ff16156106355760405162461bcd60e51b8152602060048201526017602482015276141bdcdd081a5cc8185b1c9958591e481c995b5bdd9959604a1b60448201526064016105d0565b600083815260026020908152604080832033845290915290205460ff16156106ab5760405162461bcd60e51b815260206004820152602360248201527f596f75206861766520616c7265616479207265706f72746564207468697320706044820152621bdcdd60ea1b60648201526084016105d0565b60018260ff16101580156106c3575060058260ff1611155b6107055760405162461bcd60e51b8152602060048201526013602482015272496e76616c6964207265706f7274207479706560681b60448201526064016105d0565b600083815260208190526040902054336001600160a01b039091160361076d5760405162461bcd60e51b815260206004820152601b60248201527f43616e6e6f74207265706f727420796f7572206f776e20706f7374000000000060448201526064016105d0565b6000838152600160208181526040808420815160808101835233815260ff8089168286019081529382018881524260608401528354808801855593885294909620815160039093020180549351909616600160a01b026001600160a81b03199093166001600160a01b03929092169190911791909117845590519092918201906107f79082611c04565b50606091909101516002918201556000848152602091825260408082203383528352808220805460ff19166001179055858252600390925290812080549161083e83611cc3565b9190505550336001600160a01b0316837f0ab04fa2688b09201201cf234a0d54753548fb69cf51aff21bbfd84805068a61848460405161087f929190611cea565b60405180910390a3610890836115a8565b505050565b6007546001600160a01b031633146108bf5760405162461bcd60e51b81526004016105d090611d06565b6000821180156108d157506004548211155b6108ed5760405162461bcd60e51b81526004016105d090611b89565b60008281526020819052604090206004015460ff16156109495760405162461bcd60e51b8152602060048201526017602482015276141bdcdd081a5cc8185b1c9958591e481c995b5bdd9959604a1b60448201526064016105d0565b6109538282611610565b5050565b6060600060015b60045481116109a05760008181526020819052604090206004015460ff1661098e578161098a81611cc3565b9250505b8061099881611cc3565b91505061095e565b5060008167ffffffffffffffff8111156109bc576109bc611870565b6040519080825280602002602001820160405280156109f557816020015b6109e2611695565b8152602001906001900390816109da5790505b509050600060015b6004548111610bd25760008181526020819052604090206004015460ff16610bc05760008181526020818152604091829020825160c0810190935280546001600160a01b031683526001810180549192840191610a5990611b4f565b80601f0160208091040260200160405190810160405280929190818152602001828054610a8590611b4f565b8015610ad25780601f10610aa757610100808354040283529160200191610ad2565b820191906000526020600020905b815481529060010190602001808311610ab557829003601f168201915b50505091835250506002820154602082015260038201546040820152600482015460ff1615156060820152600582018054608090920191610b1290611b4f565b80601f0160208091040260200160405190810160405280929190818152602001828054610b3e90611b4f565b8015610b8b5780601f10610b6057610100808354040283529160200191610b8b565b820191906000526020600020905b815481529060010190602001808311610b6e57829003601f168201915b505050505081525050838381518110610ba657610ba6611d47565b60200260200101819052508180610bbc90611cc3565b9250505b80610bca81611cc3565b9150506109fd565b50909392505050565b6007546001600160a01b03163314610c055760405162461bcd60e51b81526004016105d090611d06565b600655565b6007546001600160a01b03163314610c345760405162461bcd60e51b81526004016105d090611d06565b600555565b610c41611695565b600082118015610c5357506004548211155b610c6f5760405162461bcd60e51b81526004016105d090611b89565b60008281526020818152604091829020825160c0810190935280546001600160a01b031683526001810180549192840191610ca990611b4f565b80601f0160208091040260200160405190810160405280929190818152602001828054610cd590611b4f565b8015610d225780601f10610cf757610100808354040283529160200191610d22565b820191906000526020600020905b815481529060010190602001808311610d0557829003601f168201915b50505091835250506002820154602082015260038201546040820152600482015460ff1615156060820152600582018054608090920191610d6290611b4f565b80601f0160208091040260200160405190810160405280929190818152602001828054610d8e90611b4f565b8015610ddb5780601f10610db057610100808354040283529160200191610ddb565b820191906000526020600020905b815481529060010190602001808311610dbe57829003601f168201915b5050505050815250509050919050565b6007546060906001600160a01b03163314610e185760405162461bcd60e51b81526004016105d090611d06565b600060015b6004548111610e605760008181526020819052604090206004015460ff1615610e4e5781610e4a81611cc3565b9250505b80610e5881611cc3565b915050610e1d565b5060008167ffffffffffffffff811115610e7c57610e7c611870565b604051908082528060200260200182016040528015610eb557816020015b610ea2611695565b815260200190600190039081610e9a5790505b509050600060015b6004548111610bd25760008181526020819052604090206004015460ff16156110815760008181526020818152604091829020825160c0810190935280546001600160a01b031683526001810180549192840191610f1a90611b4f565b80601f0160208091040260200160405190810160405280929190818152602001828054610f4690611b4f565b8015610f935780601f10610f6857610100808354040283529160200191610f93565b820191906000526020600020905b815481529060010190602001808311610f7657829003601f168201915b50505091835250506002820154602082015260038201546040820152600482015460ff1615156060820152600582018054608090920191610fd390611b4f565b80601f0160208091040260200160405190810160405280929190818152602001828054610fff90611b4f565b801561104c5780601f106110215761010080835404028352916020019161104c565b820191906000526020600020905b81548152906001019060200180831161102f57829003601f168201915b50505050508152505083838151811061106757611067611d47565b6020026020010181905250818061107d90611cc3565b9250505b8061108b81611cc3565b915050610ebd565b60008151116110e45760405162461bcd60e51b815260206004820152601960248201527f4950465320686173682063616e6e6f7420626520656d7074790000000000000060448201526064016105d0565b600480549060006110f483611cc3565b90915550506040805160c08101825233815260208082018481524283850152600454606084018190526000608085018190528551808501875281815260a086015290815291829052929020815181546001600160a01b0319166001600160a01b039091161781559151909190600182019061116f9082611c04565b506040820151600282015560608201516003820155608082015160048201805460ff191691151591909117905560a082015160058201906111b09082611c04565b50506004546040513392507f285db98a4632176385795ddf0d2b67cef1a21f47eb2f5d06f786ab6b5147e200906111ea9085904290611d5d565b60405180910390a350565b6001602052816000526040600020818154811061121157600080fd5b6000918252602090912060039091020180546001820180546001600160a01b0383169550600160a01b90920460ff1693509061124c90611b4f565b80601f016020809104026020016040519081016040528092919081815260200182805461127890611b4f565b80156112c55780601f1061129a576101008083540402835291602001916112c5565b820191906000526020600020905b8154815290600101906020018083116112a857829003601f168201915b5050505050908060020154905084565b6060600060015b6004548111611345576000818152602081905260409020546001600160a01b038581169116148015611320575060008181526020819052604090206004015460ff16155b15611333578161132f81611cc3565b9250505b8061133d81611cc3565b9150506112dc565b5060008167ffffffffffffffff81111561136157611361611870565b60405190808252806020026020018201604052801561139a57816020015b611387611695565b81526020019060019003908161137f5790505b509050600060015b600454811161159e576000818152602081905260409020546001600160a01b0387811691161480156113e6575060008181526020819052604090206004015460ff16155b1561158c5760008181526020818152604091829020825160c0810190935280546001600160a01b03168352600181018054919284019161142590611b4f565b80601f016020809104026020016040519081016040528092919081815260200182805461145190611b4f565b801561149e5780601f106114735761010080835404028352916020019161149e565b820191906000526020600020905b81548152906001019060200180831161148157829003601f168201915b50505091835250506002820154602082015260038201546040820152600482015460ff16151560608201526005820180546080909201916114de90611b4f565b80601f016020809104026020016040519081016040528092919081815260200182805461150a90611b4f565b80156115575780601f1061152c57610100808354040283529160200191611557565b820191906000526020600020905b81548152906001019060200180831161153a57829003601f168201915b50505050508152505083838151811061157257611572611d47565b6020026020010181905250818061158890611cc3565b9250505b8061159681611cc3565b9150506113a2565b5090949350505050565b60008181526003602052604090205460055481106115e25761095382604051806060016040528060308152602001611dd460309139611610565b6001811061095357600381106109535761095382604051806080016040528060418152602001611d93604191395b600082815260208190526040902060048101805460ff1916600117905560050161163a8282611c04565b50600082815260208190526040908190205490516001600160a01b039091169083907fc30cd89a9c8361211e81ad01158fac137f5ac81ff21c9451e6a14f5c9422af9890611689908590611d7f565b60405180910390a35050565b6040518060c0016040528060006001600160a01b03168152602001606081526020016000815260200160008152602001600015158152602001606081525090565b6000602082840312156116e857600080fd5b5035919050565b6000815180845260005b81811015611715576020818501810151868301820152016116f9565b506000602082860101526020601f19601f83011685010191505092915050565b6001600160a01b038716815260c060208201819052600090611759908301886116ef565b866040840152856060840152841515608084015282810360a084015261177f81856116ef565b9998505050505050505050565b80356001600160a01b03811681146117a357600080fd5b919050565b600080604083850312156117bb57600080fd5b823591506117cb6020840161178c565b90509250929050565b6000602082016020835280845180835260408501915060408160051b86010192506020860160005b8281101561186457603f19878603018452815160018060a01b03815116865260ff602082015116602087015260408101516080604088015261184160808801826116ef565b6060928301519790920196909652945060209384019391909101906001016117fc565b50929695505050505050565b634e487b7160e01b600052604160045260246000fd5b600082601f83011261189757600080fd5b813567ffffffffffffffff8111156118b1576118b1611870565b604051601f8201601f19908116603f0116810167ffffffffffffffff811182821017156118e0576118e0611870565b6040528181528382016020018510156118f857600080fd5b816020850160208301376000918101602001919091529392505050565b60008060006060848603121561192a57600080fd5b83359250602084013560ff8116811461194257600080fd5b9150604084013567ffffffffffffffff81111561195e57600080fd5b61196a86828701611886565b9150509250925092565b6000806040838503121561198757600080fd5b82359150602083013567ffffffffffffffff8111156119a557600080fd5b6119b185828601611886565b9150509250929050565b60018060a01b0381511682526000602082015160c060208501526119e260c08501826116ef565b9050604083015160408501526060830151606085015260808301511515608085015260a083015184820360a0860152611a1b82826116ef565b95945050505050565b6000602082016020835280845180835260408501915060408160051b86010192506020860160005b8281101561186457603f19878603018452611a688583516119bb565b94506020938401939190910190600101611a4c565b602081526000611a9060208301846119bb565b9392505050565b600060208284031215611aa957600080fd5b813567ffffffffffffffff811115611ac057600080fd5b611acc84828501611886565b949350505050565b60008060408385031215611ae757600080fd5b50508035926020909101359150565b6001600160a01b038516815260ff84166020820152608060408201819052600090611b23908301856116ef565b905082606083015295945050505050565b600060208284031215611b4657600080fd5b611a908261178c565b600181811c90821680611b6357607f821691505b602082108103611b8357634e487b7160e01b600052602260045260246000fd5b50919050565b602080825260139082015272141bdcdd08191bd95cc81b9bdd08195e1a5cdd606a1b604082015260600190565b601f82111561089057806000526020600020601f840160051c81016020851015611bdd5750805b601f840160051c820191505b81811015611bfd5760008155600101611be9565b5050505050565b815167ffffffffffffffff811115611c1e57611c1e611870565b611c3281611c2c8454611b4f565b84611bb6565b6020601f821160018114611c665760008315611c4e5750848201515b600019600385901b1c1916600184901b178455611bfd565b600084815260208120601f198516915b82811015611c965787850151825560209485019460019092019101611c76565b5084821015611cb45786840151600019600387901b60f8161c191681555b50505050600190811b01905550565b600060018201611ce357634e487b7160e01b600052601160045260246000fd5b5060010190565b60ff83168152604060208201526000611acc60408301846116ef565b60208082526021908201527f4f6e6c79206f776e65722063616e2063616c6c20746869732066756e6374696f6040820152603760f91b606082015260800190565b634e487b7160e01b600052603260045260246000fd5b604081526000611d7060408301856116ef565b90508260208301529392505050565b602081526000611a9060208301846116ef56fe4175746f6d61746963616c6c792072656d6f7665643a204d756c7469706c65207265706f727473206f6e206c6f772d656e676167656d656e7420636f6e74656e744175746f6d61746963616c6c792072656d6f7665643a204578636565646564207265706f7274207468726573686f6c64a264697066735822122037673605186eb6a29a4ba60e978b9730fff72c0f8cf3c854e92a5b18a71047ab64736f6c634300081c0033",
  "linkReferences": {},
  "deployedLinkReferences": {}
}