{
  "_format": "hh-sol-artifact-1",
  "contractName": "SocialContract",
  "sourceName": "contracts/SocialContract.sol",
  "abi": [
    {
      "anonymous": false,
      "inputs": [
        {
          "indexed": true,
          "internalType": "uint256",
          "name": "postId",
          "type": "uint256"
        },
        {
          "indexed": true,
          "internalType": "address",
          "name": "liker",
          "type": "address"
        }
      ],
      "name": "PostLiked",
      "type": "event"
    },
    {
      "anonymous": false,
      "inputs": [
        {
          "indexed": true,
          "internalType": "uint256",
          "name": "postId",
          "type": "uint256"
        },
        {
          "indexed": true,
          "internalType": "address",
          "name": "tipper",
          "type": "address"
        },
        {
          "indexed": true,
          "internalType": "address",
          "name": "recipient",
          "type": "address"
        },
        {
          "indexed": false,
          "internalType": "uint256",
          "name": "amount",
          "type": "uint256"
        }
      ],
      "name": "PostTipped",
      "type": "event"
    },
    {
      "anonymous": false,
      "inputs": [
        {
          "indexed": true,
          "internalType": "uint256",
          "name": "postId",
          "type": "uint256"
        },
        {
          "indexed": true,
          "internalType": "address",
          "name": "unliker",
          "type": "address"
        }
      ],
      "name": "PostUnliked",
      "type": "event"
    },
    {
      "anonymous": false,
      "inputs": [
        {
          "indexed": true,
          "internalType": "address",
          "name": "follower",
          "type": "address"
        },
        {
          "indexed": true,
          "internalType": "address",
          "name": "followed",
          "type": "address"
        }
      ],
      "name": "UserFollowed",
      "type": "event"
    },
    {
      "anonymous": false,
      "inputs": [
        {
          "indexed": true,
          "internalType": "address",
          "name": "follower",
          "type": "address"
        },
        {
          "indexed": true,
          "internalType": "address",
          "name": "unfollowed",
          "type": "address"
        }
      ],
      "name": "UserUnfollowed",
      "type": "event"
    },
    {
      "inputs": [
        {
          "internalType": "address",
          "name": "_user",
          "type": "address"
        }
      ],
      "name": "followUser",
      "outputs": [],
      "stateMutability": "nonpayable",
      "type": "function"
    },
    {
      "inputs": [
        {
          "internalType": "address",
          "name": "",
          "type": "address"
        }
      ],
      "name": "followerCount",
      "outputs": [
        {
          "internalType": "uint256",
          "name": "",
          "type": "uint256"
        }
      ],
      "stateMutability": "view",
      "type": "function"
    },
    {
      "inputs": [
        {
          "internalType": "address",
          "name": "",
          "type": "address"
        },
        {
          "internalType": "address",
          "name": "",
          "type": "address"
        }
      ],
      "name": "following",
      "outputs": [
        {
          "internalType": "bool",
          "name": "",
          "type": "bool"
        }
      ],
      "stateMutability": "view",
      "type": "function"
    },
    {
      "inputs": [
        {
          "internalType": "address",
          "name": "",
          "type": "address"
        }
      ],
      "name": "followingCount",
      "outputs": [
        {
          "internalType": "uint256",
          "name": "",
          "type": "uint256"
        }
      ],
      "stateMutability": "view",
      "type": "function"
    },
    {
      "inputs": [
        {
          "internalType": "address",
          "name": "_user",
          "type": "address"
        }
      ],
      "name": "getFollowerCount",
      "outputs": [
        {
          "internalType": "uint256",
          "name": "",
          "type": "uint256"
        }
      ],
      "stateMutability": "view",
      "type": "function"
    },
    {
      "inputs": [
        {
          "internalType": "address",
          "name": "_user",
          "type": "address"
        }
      ],
      "name": "getFollowingCount",
      "outputs": [
        {
          "internalType": "uint256",
          "name": "",
          "type": "uint256"
        }
      ],
      "stateMutability": "view",
      "type": "function"
    },
    {
      "inputs": [
        {
          "internalType": "uint256",
          "name": "_postId",
          "type": "uint256"
        }
      ],
      "name": "getLikesCount",
      "outputs": [
        {
          "internalType": "uint256",
          "name": "",
          "type": "uint256"
        }
      ],
      "stateMutability": "view",
      "type": "function"
    },
    {
      "inputs": [
        {
          "internalType": "uint256",
          "name": "_postId",
          "type": "uint256"
        }
      ],
      "name": "getTipsAmount",
      "outputs": [
        {
          "internalType": "uint256",
          "name": "",
          "type": "uint256"
        }
      ],
      "stateMutability": "view",
      "type": "function"
    },
    {
      "inputs": [
        {
          "internalType": "address",
          "name": "_user",
          "type": "address"
        }
      ],
      "name": "getTotalTipsReceived",
      "outputs": [
        {
          "internalType": "uint256",
          "name": "",
          "type": "uint256"
        }
      ],
      "stateMutability": "view",
      "type": "function"
    },
    {
      "inputs": [
        {
          "internalType": "uint256",
          "name": "",
          "type": "uint256"
        },
        {
          "internalType": "address",
          "name": "",
          "type": "address"
        }
      ],
      "name": "hasLiked",
      "outputs": [
        {
          "internalType": "bool",
          "name": "",
          "type": "bool"
        }
      ],
      "stateMutability": "view",
      "type": "function"
    },
    {
      "inputs": [
        {
          "internalType": "uint256",
          "name": "_postId",
          "type": "uint256"
        },
        {
          "internalType": "address",
          "name": "_user",
          "type": "address"
        }
      ],
      "name": "hasUserLiked",
      "outputs": [
        {
          "internalType": "bool",
          "name": "",
          "type": "bool"
        }
      ],
      "stateMutability": "view",
      "type": "function"
    },
    {
      "inputs": [
        {
          "internalType": "address",
          "name": "_follower",
          "type": "address"
        },
        {
          "internalType": "address",
          "name": "_followed",
          "type": "address"
        }
      ],
      "name": "isFollowing",
      "outputs": [
        {
          "internalType": "bool",
          "name": "",
          "type": "bool"
        }
      ],
      "stateMutability": "view",
      "type": "function"
    },
    {
      "inputs": [
        {
          "internalType": "uint256",
          "name": "_postId",
          "type": "uint256"
        }
      ],
      "name": "likePost",
      "outputs": [],
      "stateMutability": "nonpayable",
      "type": "function"
    },
    {
      "inputs": [
        {
          "internalType": "uint256",
          "name": "",
          "type": "uint256"
        }
      ],
      "name": "likesCount",
      "outputs": [
        {
          "internalType": "uint256",
          "name": "",
          "type": "uint256"
        }
      ],
      "stateMutability": "view",
      "type": "function"
    },
    {
      "inputs": [
        {
          "internalType": "uint256",
          "name": "_postId",
          "type": "uint256"
        },
        {
          "internalType": "uint256",
          "name": "_reportCount",
          "type": "uint256"
        },
        {
          "internalType": "uint256",
          "name": "_reportToLikeRatio",
          "type": "uint256"
        }
      ],
      "name": "shouldRemovePost",
      "outputs": [
        {
          "internalType": "bool",
          "name": "",
          "type": "bool"
        }
      ],
      "stateMutability": "view",
      "type": "function"
    },
    {
      "inputs": [
        {
          "internalType": "uint256",
          "name": "_postId",
          "type": "uint256"
        },
        {
          "internalType": "address",
          "name": "_recipient",
          "type": "address"
        }
      ],
      "name": "tipPost",
      "outputs": [],
      "stateMutability": "payable",
      "type": "function"
    },
    {
      "inputs": [
        {
          "internalType": "uint256",
          "name": "",
          "type": "uint256"
        }
      ],
      "name": "tips",
      "outputs": [
        {
          "internalType": "uint256",
          "name": "",
          "type": "uint256"
        }
      ],
      "stateMutability": "view",
      "type": "function"
    },
    {
      "inputs": [
        {
          "internalType": "address",
          "name": "",
          "type": "address"
        }
      ],
      "name": "totalTipsReceived",
      "outputs": [
        {
          "internalType": "uint256",
          "name": "",
          "type": "uint256"
        }
      ],
      "stateMutability": "view",
      "type": "function"
    },
    {
      "inputs": [
        {
          "internalType": "address",
          "name": "_user",
          "type": "address"
        }
      ],
      "name": "unfollowUser",
      "outputs": [],
      "stateMutability": "nonpayable",
      "type": "function"
    },
    {
      "inputs": [
        {
          "internalType": "uint256",
          "name": "_postId",
          "type": "uint256"
        }
      ],
      "name": "unlikePost",
      "outputs": [],
      "stateMutability": "nonpayable",
      "type": "function"
    }
  ],
  "bytecode": "0x6080604052348015600f57600080fd5b50610c398061001f6000396000f3fe60806040526004361061011f5760003560e01c806399ec3a42116100a0578063cd34d1e911610064578063cd34d1e9146103d8578063ce9ae00114610405578063f107cfcb1461043d578063fa188de91461045d578063fab7d5361461047d57600080fd5b806399ec3a42146102e1578063a160a5df14610328578063a5c68c5914610355578063a70806f714610382578063cb04c970146103a257600080fd5b806364548707116100e7578063645487071461020e5780636595c8bc1461023b578063725009d3146102505780638765d1fd146102705780638fb7092c146102a657600080fd5b80630a602c91146101245780631b6812371461016457806330b3a890146101945780633c60b559146101c1578063402f0fa0146101ee575b600080fd5b34801561013057600080fd5b5061015161013f366004610ac1565b60009081526005602052604090205490565b6040519081526020015b60405180910390f35b34801561017057600080fd5b5061018461017f366004610ada565b6104b3565b604051901515815260200161015b565b3480156101a057600080fd5b506101516101af366004610b22565b60016020526000908152604090205481565b3480156101cd57600080fd5b506101516101dc366004610ac1565b60046020526000908152604090205481565b3480156101fa57600080fd5b50610184610209366004610b3d565b6104ed565b34801561021a57600080fd5b50610151610229366004610b22565b60026020526000908152604090205481565b61024e610249366004610b3d565b61051a565b005b34801561025c57600080fd5b5061024e61026b366004610ac1565b6106a7565b34801561027c57600080fd5b5061015161028b366004610b22565b6001600160a01b031660009081526006602052604090205490565b3480156102b257600080fd5b506101846102c1366004610b3d565b600360209081526000928352604080842090915290825290205460ff1681565b3480156102ed57600080fd5b506101846102fc366004610b69565b6001600160a01b0391821660009081526020818152604080832093909416825291909152205460ff1690565b34801561033457600080fd5b50610151610343366004610ac1565b60009081526004602052604090205490565b34801561036157600080fd5b50610151610370366004610ac1565b60056020526000908152604090205481565b34801561038e57600080fd5b5061024e61039d366004610b22565b610780565b3480156103ae57600080fd5b506101516103bd366004610b22565b6001600160a01b031660009081526001602052604090205490565b3480156103e457600080fd5b506101516103f3366004610b22565b60066020526000908152604090205481565b34801561041157600080fd5b50610184610420366004610b69565b600060208181529281526040808220909352908152205460ff1681565b34801561044957600080fd5b5061024e610458366004610b22565b6108e1565b34801561046957600080fd5b5061024e610478366004610ac1565b6109ec565b34801561048957600080fd5b50610151610498366004610b22565b6001600160a01b031660009081526002602052604090205490565b6000838152600460205260408120548082036104d557505060038210156104e6565b6104df8382610ba9565b8410159150505b9392505050565b60008281526003602090815260408083206001600160a01b038516845290915290205460ff165b92915050565b600034116105795760405162461bcd60e51b815260206004820152602160248201527f54697020616d6f756e74206d7573742062652067726561746572207468616e206044820152600360fc1b60648201526084015b60405180910390fd5b6001600160a01b0381166105cf5760405162461bcd60e51b815260206004820152601960248201527f496e76616c696420726563697069656e742061646472657373000000000000006044820152606401610570565b600082815260056020526040812080543492906105ed908490610bc0565b90915550506001600160a01b0381166000908152600660205260408120805434929061061a908490610bc0565b90915550506040516001600160a01b038216903480156108fc02916000818181858888f19350505050158015610654573d6000803e3d6000fd5b50806001600160a01b0316336001600160a01b0316837fd22aea0e08a57d349c3aa88ec8cfb473da542cde6664876f308d277e332be46e3460405161069b91815260200190565b60405180910390a45050565b600081815260036020908152604080832033845290915290205460ff16156107115760405162461bcd60e51b815260206004820152601760248201527f416c7265616479206c696b6564207468697320706f73740000000000000000006044820152606401610570565b60008181526003602090815260408083203384528252808320805460ff191660011790558383526004909152812080549161074b83610bd3565b9091555050604051339082907fcf765d6f163c9b0d832e2a94f4c8e9bffd32a2c3ca5fdbb8cc67b5fe1441f41390600090a350565b336001600160a01b038216036107d15760405162461bcd60e51b815260206004820152601660248201527521b0b73737ba103337b63637bb903cb7bab939b2b63360511b6044820152606401610570565b336000908152602081815260408083206001600160a01b038516845290915290205460ff16156108435760405162461bcd60e51b815260206004820152601b60248201527f416c726561647920666f6c6c6f77696e672074686973207573657200000000006044820152606401610570565b336000908152602081815260408083206001600160a01b03851684528252808320805460ff19166001908117909155909152812080549161088383610bd3565b90915550503360009081526002602052604081208054916108a383610bd3565b90915550506040516001600160a01b0382169033907f30b3435b456f45779984ddfa456115ee4c20d9e446979b1b9e90dbb7e12b90b790600090a350565b336000908152602081815260408083206001600160a01b038516845290915290205460ff166109525760405162461bcd60e51b815260206004820152601760248201527f4e6f7420666f6c6c6f77696e67207468697320757365720000000000000000006044820152606401610570565b336000908152602081815260408083206001600160a01b03851684528252808320805460ff191690556001909152812080549161098e83610bec565b90915550503360009081526002602052604081208054916109ae83610bec565b90915550506040516001600160a01b0382169033907fe7339343c6edff57f2d15278c419523844cea30ae5ee2146aa22cb9e3107dab790600090a350565b600081815260036020908152604080832033845290915290205460ff16610a555760405162461bcd60e51b815260206004820152601760248201527f486176656e2774206c696b6564207468697320706f73740000000000000000006044820152606401610570565b60008181526003602090815260408083203384528252808320805460ff1916905583835260049091528120805491610a8c83610bec565b9091555050604051339082907f82092d1196022c48d901e5dc4b17451dbce942b8a9ded42fc6f2a4a5e8fd89b990600090a350565b600060208284031215610ad357600080fd5b5035919050565b600080600060608486031215610aef57600080fd5b505081359360208301359350604090920135919050565b80356001600160a01b0381168114610b1d57600080fd5b919050565b600060208284031215610b3457600080fd5b6104e682610b06565b60008060408385031215610b5057600080fd5b82359150610b6060208401610b06565b90509250929050565b60008060408385031215610b7c57600080fd5b610b8583610b06565b9150610b6060208401610b06565b634e487b7160e01b600052601160045260246000fd5b808202811582820484141761051457610514610b93565b8082018082111561051457610514610b93565b600060018201610be557610be5610b93565b5060010190565b600081610bfb57610bfb610b93565b50600019019056fea26469706673582212205d618d5b65a160a6c48e07de9c7c079542945384d2668c07514da38bc4b2755764736f6c634300081c0033",
  "linkReferences": {},
  "deployedLinkReferences": {}
}